{
  "_format": "hh-sol-artifact-1",
  "contractName": "Test1155",
  "sourceName": "contracts/test1155.sol",
  "abi": [
    {
      "inputs": [],
      "stateMutability": "nonpayable",
      "type": "constructor"
    },
    {
      "anonymous": false,
      "inputs": [
        {
          "indexed": true,
          "internalType": "address",
          "name": "account",
          "type": "address"
        },
        {
          "indexed": true,
          "internalType": "address",
          "name": "operator",
          "type": "address"
        },
        {
          "indexed": false,
          "internalType": "bool",
          "name": "approved",
          "type": "bool"
        }
      ],
      "name": "ApprovalForAll",
      "type": "event"
    },
    {
      "anonymous": false,
      "inputs": [
        {
          "indexed": true,
          "internalType": "address",
          "name": "previousOwner",
          "type": "address"
        },
        {
          "indexed": true,
          "internalType": "address",
          "name": "newOwner",
          "type": "address"
        }
      ],
      "name": "OwnershipTransferred",
      "type": "event"
    },
    {
      "anonymous": false,
      "inputs": [
        {
          "indexed": false,
          "internalType": "address",
          "name": "account",
          "type": "address"
        }
      ],
      "name": "Paused",
      "type": "event"
    },
    {
      "anonymous": false,
      "inputs": [
        {
          "indexed": true,
          "internalType": "address",
          "name": "operator",
          "type": "address"
        },
        {
          "indexed": true,
          "internalType": "address",
          "name": "from",
          "type": "address"
        },
        {
          "indexed": true,
          "internalType": "address",
          "name": "to",
          "type": "address"
        },
        {
          "indexed": false,
          "internalType": "uint256[]",
          "name": "ids",
          "type": "uint256[]"
        },
        {
          "indexed": false,
          "internalType": "uint256[]",
          "name": "values",
          "type": "uint256[]"
        }
      ],
      "name": "TransferBatch",
      "type": "event"
    },
    {
      "anonymous": false,
      "inputs": [
        {
          "indexed": true,
          "internalType": "address",
          "name": "operator",
          "type": "address"
        },
        {
          "indexed": true,
          "internalType": "address",
          "name": "from",
          "type": "address"
        },
        {
          "indexed": true,
          "internalType": "address",
          "name": "to",
          "type": "address"
        },
        {
          "indexed": false,
          "internalType": "uint256",
          "name": "id",
          "type": "uint256"
        },
        {
          "indexed": false,
          "internalType": "uint256",
          "name": "value",
          "type": "uint256"
        }
      ],
      "name": "TransferSingle",
      "type": "event"
    },
    {
      "anonymous": false,
      "inputs": [
        {
          "indexed": false,
          "internalType": "string",
          "name": "value",
          "type": "string"
        },
        {
          "indexed": true,
          "internalType": "uint256",
          "name": "id",
          "type": "uint256"
        }
      ],
      "name": "URI",
      "type": "event"
    },
    {
      "anonymous": false,
      "inputs": [
        {
          "indexed": false,
          "internalType": "address",
          "name": "account",
          "type": "address"
        }
      ],
      "name": "Unpaused",
      "type": "event"
    },
    {
      "inputs": [
        {
          "internalType": "address",
          "name": "account",
          "type": "address"
        },
        {
          "internalType": "uint256",
          "name": "id",
          "type": "uint256"
        }
      ],
      "name": "balanceOf",
      "outputs": [
        {
          "internalType": "uint256",
          "name": "",
          "type": "uint256"
        }
      ],
      "stateMutability": "view",
      "type": "function"
    },
    {
      "inputs": [
        {
          "internalType": "address[]",
          "name": "accounts",
          "type": "address[]"
        },
        {
          "internalType": "uint256[]",
          "name": "ids",
          "type": "uint256[]"
        }
      ],
      "name": "balanceOfBatch",
      "outputs": [
        {
          "internalType": "uint256[]",
          "name": "",
          "type": "uint256[]"
        }
      ],
      "stateMutability": "view",
      "type": "function"
    },
    {
      "inputs": [
        {
          "internalType": "address",
          "name": "account",
          "type": "address"
        },
        {
          "internalType": "uint256",
          "name": "id",
          "type": "uint256"
        },
        {
          "internalType": "uint256",
          "name": "value",
          "type": "uint256"
        }
      ],
      "name": "burn",
      "outputs": [],
      "stateMutability": "nonpayable",
      "type": "function"
    },
    {
      "inputs": [
        {
          "internalType": "address",
          "name": "account",
          "type": "address"
        },
        {
          "internalType": "uint256[]",
          "name": "ids",
          "type": "uint256[]"
        },
        {
          "internalType": "uint256[]",
          "name": "values",
          "type": "uint256[]"
        }
      ],
      "name": "burnBatch",
      "outputs": [],
      "stateMutability": "nonpayable",
      "type": "function"
    },
    {
      "inputs": [
        {
          "internalType": "uint256",
          "name": "id",
          "type": "uint256"
        }
      ],
      "name": "exists",
      "outputs": [
        {
          "internalType": "bool",
          "name": "",
          "type": "bool"
        }
      ],
      "stateMutability": "view",
      "type": "function"
    },
    {
      "inputs": [
        {
          "internalType": "address",
          "name": "account",
          "type": "address"
        },
        {
          "internalType": "address",
          "name": "operator",
          "type": "address"
        }
      ],
      "name": "isApprovedForAll",
      "outputs": [
        {
          "internalType": "bool",
          "name": "",
          "type": "bool"
        }
      ],
      "stateMutability": "view",
      "type": "function"
    },
    {
      "inputs": [
        {
          "internalType": "address",
          "name": "account",
          "type": "address"
        },
        {
          "internalType": "uint256",
          "name": "id",
          "type": "uint256"
        },
        {
          "internalType": "uint256",
          "name": "amount",
          "type": "uint256"
        },
        {
          "internalType": "bytes",
          "name": "data",
          "type": "bytes"
        }
      ],
      "name": "mint",
      "outputs": [],
      "stateMutability": "nonpayable",
      "type": "function"
    },
    {
      "inputs": [
        {
          "internalType": "address",
          "name": "to",
          "type": "address"
        },
        {
          "internalType": "uint256[]",
          "name": "ids",
          "type": "uint256[]"
        },
        {
          "internalType": "uint256[]",
          "name": "amounts",
          "type": "uint256[]"
        },
        {
          "internalType": "bytes",
          "name": "data",
          "type": "bytes"
        }
      ],
      "name": "mintBatch",
      "outputs": [],
      "stateMutability": "nonpayable",
      "type": "function"
    },
    {
      "inputs": [],
      "name": "owner",
      "outputs": [
        {
          "internalType": "address",
          "name": "",
          "type": "address"
        }
      ],
      "stateMutability": "view",
      "type": "function"
    },
    {
      "inputs": [],
      "name": "pause",
      "outputs": [],
      "stateMutability": "nonpayable",
      "type": "function"
    },
    {
      "inputs": [],
      "name": "paused",
      "outputs": [
        {
          "internalType": "bool",
          "name": "",
          "type": "bool"
        }
      ],
      "stateMutability": "view",
      "type": "function"
    },
    {
      "inputs": [],
      "name": "renounceOwnership",
      "outputs": [],
      "stateMutability": "nonpayable",
      "type": "function"
    },
    {
      "inputs": [
        {
          "internalType": "address",
          "name": "from",
          "type": "address"
        },
        {
          "internalType": "address",
          "name": "to",
          "type": "address"
        },
        {
          "internalType": "uint256[]",
          "name": "ids",
          "type": "uint256[]"
        },
        {
          "internalType": "uint256[]",
          "name": "amounts",
          "type": "uint256[]"
        },
        {
          "internalType": "bytes",
          "name": "data",
          "type": "bytes"
        }
      ],
      "name": "safeBatchTransferFrom",
      "outputs": [],
      "stateMutability": "nonpayable",
      "type": "function"
    },
    {
      "inputs": [
        {
          "internalType": "address",
          "name": "from",
          "type": "address"
        },
        {
          "internalType": "address",
          "name": "to",
          "type": "address"
        },
        {
          "internalType": "uint256",
          "name": "id",
          "type": "uint256"
        },
        {
          "internalType": "uint256",
          "name": "amount",
          "type": "uint256"
        },
        {
          "internalType": "bytes",
          "name": "data",
          "type": "bytes"
        }
      ],
      "name": "safeTransferFrom",
      "outputs": [],
      "stateMutability": "nonpayable",
      "type": "function"
    },
    {
      "inputs": [
        {
          "internalType": "address",
          "name": "operator",
          "type": "address"
        },
        {
          "internalType": "bool",
          "name": "approved",
          "type": "bool"
        }
      ],
      "name": "setApprovalForAll",
      "outputs": [],
      "stateMutability": "nonpayable",
      "type": "function"
    },
    {
      "inputs": [
        {
          "internalType": "string",
          "name": "newuri",
          "type": "string"
        }
      ],
      "name": "setURI",
      "outputs": [],
      "stateMutability": "nonpayable",
      "type": "function"
    },
    {
      "inputs": [
        {
          "internalType": "bytes4",
          "name": "interfaceId",
          "type": "bytes4"
        }
      ],
      "name": "supportsInterface",
      "outputs": [
        {
          "internalType": "bool",
          "name": "",
          "type": "bool"
        }
      ],
      "stateMutability": "view",
      "type": "function"
    },
    {
      "inputs": [
        {
          "internalType": "uint256",
          "name": "id",
          "type": "uint256"
        }
      ],
      "name": "totalSupply",
      "outputs": [
        {
          "internalType": "uint256",
          "name": "",
          "type": "uint256"
        }
      ],
      "stateMutability": "view",
      "type": "function"
    },
    {
      "inputs": [
        {
          "internalType": "address",
          "name": "newOwner",
          "type": "address"
        }
      ],
      "name": "transferOwnership",
      "outputs": [],
      "stateMutability": "nonpayable",
      "type": "function"
    },
    {
      "inputs": [],
      "name": "unpause",
      "outputs": [],
      "stateMutability": "nonpayable",
      "type": "function"
    },
    {
      "inputs": [
        {
          "internalType": "uint256",
          "name": "",
          "type": "uint256"
        }
      ],
      "name": "uri",
      "outputs": [
        {
          "internalType": "string",
          "name": "",
          "type": "string"
        }
      ],
      "stateMutability": "view",
      "type": "function"
    }
  ],
  "bytecode": "0x60806040523480156200001157600080fd5b506040518060200160405280600081525062000033816200007560201b60201c565b5062000054620000486200009160201b60201c565b6200009960201b60201c565b6000600360146101000a81548160ff02191690831515021790555062000274565b80600290805190602001906200008d9291906200015f565b5050565b600033905090565b6000600360009054906101000a900473ffffffffffffffffffffffffffffffffffffffff16905081600360006101000a81548173ffffffffffffffffffffffffffffffffffffffff021916908373ffffffffffffffffffffffffffffffffffffffff1602179055508173ffffffffffffffffffffffffffffffffffffffff168173ffffffffffffffffffffffffffffffffffffffff167f8be0079c531659141344cd1fd0a4f28419497f9722a3daafe3b4186f6b6457e060405160405180910390a35050565b8280546200016d906200023e565b90600052602060002090601f016020900481019282620001915760008555620001dd565b82601f10620001ac57805160ff1916838001178555620001dd565b82800160010185558215620001dd579182015b82811115620001dc578251825591602001919060010190620001bf565b5b509050620001ec9190620001f0565b5090565b5b808211156200020b576000816000905550600101620001f1565b5090565b7f4e487b7100000000000000000000000000000000000000000000000000000000600052602260045260246000fd5b600060028204905060018216806200025757607f821691505b602082108114156200026e576200026d6200020f565b5b50919050565b613f9b80620002846000396000f3fe608060405234801561001057600080fd5b50600436106101365760003560e01c80636b20c454116100b8578063a22cb4651161007c578063a22cb46514610311578063bd85b0391461032d578063e985e9c51461035d578063f242432a1461038d578063f2fde38b146103a9578063f5298aca146103c557610136565b80636b20c454146102a7578063715018a6146102c3578063731133e9146102cd5780638456cb59146102e95780638da5cb5b146102f357610136565b80632eb2c2d6116100ff5780632eb2c2d6146102035780633f4ba83a1461021f5780634e1273f4146102295780634f558e79146102595780635c975abb1461028957610136565b8062fdd58e1461013b57806301ffc9a71461016b57806302fe53051461019b5780630e89341c146101b75780631f7fdffa146101e7575b600080fd5b610155600480360381019061015091906126b5565b6103e1565b6040516101629190612704565b60405180910390f35b61018560048036038101906101809190612777565b6104aa565b60405161019291906127bf565b60405180910390f35b6101b560048036038101906101b09190612920565b61058c565b005b6101d160048036038101906101cc9190612969565b6105a0565b6040516101de9190612a1e565b60405180910390f35b61020160048036038101906101fc9190612ba9565b610634565b005b61021d60048036038101906102189190612c64565b61064e565b005b6102276106ef565b005b610243600480360381019061023e9190612df6565b610701565b6040516102509190612f2c565b60405180910390f35b610273600480360381019061026e9190612969565b61081a565b60405161028091906127bf565b60405180910390f35b61029161082e565b60405161029e91906127bf565b60405180910390f35b6102c160048036038101906102bc9190612f4e565b610845565b005b6102cb6108e2565b005b6102e760048036038101906102e29190612fd9565b6108f6565b005b6102f1610910565b005b6102fb610922565b604051610308919061306b565b60405180910390f35b61032b600480360381019061032691906130b2565b61094c565b005b61034760048036038101906103429190612969565b610962565b6040516103549190612704565b60405180910390f35b610377600480360381019061037291906130f2565b61097f565b60405161038491906127bf565b60405180910390f35b6103a760048036038101906103a29190613132565b610a13565b005b6103c360048036038101906103be91906131c9565b610ab4565b005b6103df60048036038101906103da91906131f6565b610b38565b005b60008073ffffffffffffffffffffffffffffffffffffffff168373ffffffffffffffffffffffffffffffffffffffff161415610452576040517f08c379a0000000000000000000000000000000000000000000000000000000008152600401610449906132bb565b60405180910390fd5b60008083815260200190815260200160002060008473ffffffffffffffffffffffffffffffffffffffff1673ffffffffffffffffffffffffffffffffffffffff16815260200190815260200160002054905092915050565b60007fd9b67a26000000000000000000000000000000000000000000000000000000007bffffffffffffffffffffffffffffffffffffffffffffffffffffffff1916827bffffffffffffffffffffffffffffffffffffffffffffffffffffffff1916148061057557507f0e89341c000000000000000000000000000000000000000000000000000000007bffffffffffffffffffffffffffffffffffffffffffffffffffffffff1916827bffffffffffffffffffffffffffffffffffffffffffffffffffffffff1916145b80610585575061058482610bd5565b5b9050919050565b610594610c3f565b61059d81610cbd565b50565b6060600280546105af9061330a565b80601f01602080910402602001604051908101604052809291908181526020018280546105db9061330a565b80156106285780601f106105fd57610100808354040283529160200191610628565b820191906000526020600020905b81548152906001019060200180831161060b57829003601f168201915b50505050509050919050565b61063c610c3f565b61064884848484610cd7565b50505050565b610656610f04565b73ffffffffffffffffffffffffffffffffffffffff168573ffffffffffffffffffffffffffffffffffffffff16148061069c575061069b85610696610f04565b61097f565b5b6106db576040517f08c379a00000000000000000000000000000000000000000000000000000000081526004016106d2906133ae565b60405180910390fd5b6106e88585858585610f0c565b5050505050565b6106f7610c3f565b6106ff61122e565b565b60608151835114610747576040517f08c379a000000000000000000000000000000000000000000000000000000000815260040161073e90613440565b60405180910390fd5b6000835167ffffffffffffffff811115610764576107636127f5565b5b6040519080825280602002602001820160405280156107925781602001602082028036833780820191505090505b50905060005b845181101561080f576107df8582815181106107b7576107b6613460565b5b60200260200101518583815181106107d2576107d1613460565b5b60200260200101516103e1565b8282815181106107f2576107f1613460565b5b60200260200101818152505080610808906134be565b9050610798565b508091505092915050565b60008061082683610962565b119050919050565b6000600360149054906101000a900460ff16905090565b61084d610f04565b73ffffffffffffffffffffffffffffffffffffffff168373ffffffffffffffffffffffffffffffffffffffff16148061089357506108928361088d610f04565b61097f565b5b6108d2576040517f08c379a00000000000000000000000000000000000000000000000000000000081526004016108c9906133ae565b60405180910390fd5b6108dd838383611291565b505050565b6108ea610c3f565b6108f46000611560565b565b6108fe610c3f565b61090a84848484611626565b50505050565b610918610c3f565b6109206117d7565b565b6000600360009054906101000a900473ffffffffffffffffffffffffffffffffffffffff16905090565b61095e610957610f04565b838361183a565b5050565b600060046000838152602001908152602001600020549050919050565b6000600160008473ffffffffffffffffffffffffffffffffffffffff1673ffffffffffffffffffffffffffffffffffffffff16815260200190815260200160002060008373ffffffffffffffffffffffffffffffffffffffff1673ffffffffffffffffffffffffffffffffffffffff16815260200190815260200160002060009054906101000a900460ff16905092915050565b610a1b610f04565b73ffffffffffffffffffffffffffffffffffffffff168573ffffffffffffffffffffffffffffffffffffffff161480610a615750610a6085610a5b610f04565b61097f565b5b610aa0576040517f08c379a0000000000000000000000000000000000000000000000000000000008152600401610a97906133ae565b60405180910390fd5b610aad85858585856119a7565b5050505050565b610abc610c3f565b600073ffffffffffffffffffffffffffffffffffffffff168173ffffffffffffffffffffffffffffffffffffffff161415610b2c576040517f08c379a0000000000000000000000000000000000000000000000000000000008152600401610b2390613579565b60405180910390fd5b610b3581611560565b50565b610b40610f04565b73ffffffffffffffffffffffffffffffffffffffff168373ffffffffffffffffffffffffffffffffffffffff161480610b865750610b8583610b80610f04565b61097f565b5b610bc5576040517f08c379a0000000000000000000000000000000000000000000000000000000008152600401610bbc906133ae565b60405180910390fd5b610bd0838383611c43565b505050565b60007f01ffc9a7000000000000000000000000000000000000000000000000000000007bffffffffffffffffffffffffffffffffffffffffffffffffffffffff1916827bffffffffffffffffffffffffffffffffffffffffffffffffffffffff1916149050919050565b610c47610f04565b73ffffffffffffffffffffffffffffffffffffffff16610c65610922565b73ffffffffffffffffffffffffffffffffffffffff1614610cbb576040517f08c379a0000000000000000000000000000000000000000000000000000000008152600401610cb2906135e5565b60405180910390fd5b565b8060029080519060200190610cd392919061256a565b5050565b600073ffffffffffffffffffffffffffffffffffffffff168473ffffffffffffffffffffffffffffffffffffffff161415610d47576040517f08c379a0000000000000000000000000000000000000000000000000000000008152600401610d3e90613677565b60405180910390fd5b8151835114610d8b576040517f08c379a0000000000000000000000000000000000000000000000000000000008152600401610d8290613709565b60405180910390fd5b6000610d95610f04565b9050610da681600087878787611e8a565b60005b8451811015610e5f57838181518110610dc557610dc4613460565b5b6020026020010151600080878481518110610de357610de2613460565b5b6020026020010151815260200190815260200160002060008873ffffffffffffffffffffffffffffffffffffffff1673ffffffffffffffffffffffffffffffffffffffff1681526020019081526020016000206000828254610e459190613729565b925050819055508080610e57906134be565b915050610da9565b508473ffffffffffffffffffffffffffffffffffffffff16600073ffffffffffffffffffffffffffffffffffffffff168273ffffffffffffffffffffffffffffffffffffffff167f4a39dc06d4c0dbc64b70af90fd698a233a518aa5d07e595d983b8c0526c8f7fb8787604051610ed792919061377f565b60405180910390a4610eee81600087878787611ea8565b610efd81600087878787611eb0565b5050505050565b600033905090565b8151835114610f50576040517f08c379a0000000000000000000000000000000000000000000000000000000008152600401610f4790613709565b60405180910390fd5b600073ffffffffffffffffffffffffffffffffffffffff168473ffffffffffffffffffffffffffffffffffffffff161415610fc0576040517f08c379a0000000000000000000000000000000000000000000000000000000008152600401610fb790613828565b60405180910390fd5b6000610fca610f04565b9050610fda818787878787611e8a565b60005b845181101561118b576000858281518110610ffb57610ffa613460565b5b60200260200101519050600085838151811061101a57611019613460565b5b60200260200101519050600080600084815260200190815260200160002060008b73ffffffffffffffffffffffffffffffffffffffff1673ffffffffffffffffffffffffffffffffffffffff168152602001908152602001600020549050818110156110bb576040517f08c379a00000000000000000000000000000000000000000000000000000000081526004016110b2906138ba565b60405180910390fd5b81810360008085815260200190815260200160002060008c73ffffffffffffffffffffffffffffffffffffffff1673ffffffffffffffffffffffffffffffffffffffff168152602001908152602001600020819055508160008085815260200190815260200160002060008b73ffffffffffffffffffffffffffffffffffffffff1673ffffffffffffffffffffffffffffffffffffffff16815260200190815260200160002060008282546111709190613729565b9250508190555050505080611184906134be565b9050610fdd565b508473ffffffffffffffffffffffffffffffffffffffff168673ffffffffffffffffffffffffffffffffffffffff168273ffffffffffffffffffffffffffffffffffffffff167f4a39dc06d4c0dbc64b70af90fd698a233a518aa5d07e595d983b8c0526c8f7fb878760405161120292919061377f565b60405180910390a4611218818787878787611ea8565b611226818787878787611eb0565b505050505050565b611236612088565b6000600360146101000a81548160ff0219169083151502179055507f5db9ee0a495bf2e6ff9c91a7834c1ba4fdd244a5e8aa4e537bd38aeae4b073aa61127a610f04565b604051611287919061306b565b60405180910390a1565b600073ffffffffffffffffffffffffffffffffffffffff168373ffffffffffffffffffffffffffffffffffffffff161415611301576040517f08c379a00000000000000000000000000000000000000000000000000000000081526004016112f89061394c565b60405180910390fd5b8051825114611345576040517f08c379a000000000000000000000000000000000000000000000000000000000815260040161133c90613709565b60405180910390fd5b600061134f610f04565b905061136f81856000868660405180602001604052806000815250611e8a565b60005b83518110156114bc5760008482815181106113905761138f613460565b5b6020026020010151905060008483815181106113af576113ae613460565b5b60200260200101519050600080600084815260200190815260200160002060008973ffffffffffffffffffffffffffffffffffffffff1673ffffffffffffffffffffffffffffffffffffffff16815260200190815260200160002054905081811015611450576040517f08c379a0000000000000000000000000000000000000000000000000000000008152600401611447906139de565b60405180910390fd5b81810360008085815260200190815260200160002060008a73ffffffffffffffffffffffffffffffffffffffff1673ffffffffffffffffffffffffffffffffffffffff1681526020019081526020016000208190555050505080806114b4906134be565b915050611372565b50600073ffffffffffffffffffffffffffffffffffffffff168473ffffffffffffffffffffffffffffffffffffffff168273ffffffffffffffffffffffffffffffffffffffff167f4a39dc06d4c0dbc64b70af90fd698a233a518aa5d07e595d983b8c0526c8f7fb868660405161153492919061377f565b60405180910390a461155a81856000868660405180602001604052806000815250611ea8565b50505050565b6000600360009054906101000a900473ffffffffffffffffffffffffffffffffffffffff16905081600360006101000a81548173ffffffffffffffffffffffffffffffffffffffff021916908373ffffffffffffffffffffffffffffffffffffffff1602179055508173ffffffffffffffffffffffffffffffffffffffff168173ffffffffffffffffffffffffffffffffffffffff167f8be0079c531659141344cd1fd0a4f28419497f9722a3daafe3b4186f6b6457e060405160405180910390a35050565b600073ffffffffffffffffffffffffffffffffffffffff168473ffffffffffffffffffffffffffffffffffffffff161415611696576040517f08c379a000000000000000000000000000000000000000000000000000000000815260040161168d90613677565b60405180910390fd5b60006116a0610f04565b905060006116ad856120d1565b905060006116ba856120d1565b90506116cb83600089858589611e8a565b8460008088815260200190815260200160002060008973ffffffffffffffffffffffffffffffffffffffff1673ffffffffffffffffffffffffffffffffffffffff168152602001908152602001600020600082825461172a9190613729565b925050819055508673ffffffffffffffffffffffffffffffffffffffff16600073ffffffffffffffffffffffffffffffffffffffff168473ffffffffffffffffffffffffffffffffffffffff167fc3d58168c5ae7397731d063d5bbf3d657854427343f4c083240f7aacaa2d0f6289896040516117a89291906139fe565b60405180910390a46117bf83600089858589611ea8565b6117ce8360008989898961214b565b50505050505050565b6117df612323565b6001600360146101000a81548160ff0219169083151502179055507f62e78cea01bee320cd4e420270b5ea74000d11b0c9f74754ebdbfc544b05a258611823610f04565b604051611830919061306b565b60405180910390a1565b8173ffffffffffffffffffffffffffffffffffffffff168373ffffffffffffffffffffffffffffffffffffffff1614156118a9576040517f08c379a00000000000000000000000000000000000000000000000000000000081526004016118a090613a99565b60405180910390fd5b80600160008573ffffffffffffffffffffffffffffffffffffffff1673ffffffffffffffffffffffffffffffffffffffff16815260200190815260200160002060008473ffffffffffffffffffffffffffffffffffffffff1673ffffffffffffffffffffffffffffffffffffffff16815260200190815260200160002060006101000a81548160ff0219169083151502179055508173ffffffffffffffffffffffffffffffffffffffff168373ffffffffffffffffffffffffffffffffffffffff167f17307eab39ab6107e8899845ad3d59bd9653f200f220920489ca2b5937696c318360405161199a91906127bf565b60405180910390a3505050565b600073ffffffffffffffffffffffffffffffffffffffff168473ffffffffffffffffffffffffffffffffffffffff161415611a17576040517f08c379a0000000000000000000000000000000000000000000000000000000008152600401611a0e90613828565b60405180910390fd5b6000611a21610f04565b90506000611a2e856120d1565b90506000611a3b856120d1565b9050611a4b838989858589611e8a565b600080600088815260200190815260200160002060008a73ffffffffffffffffffffffffffffffffffffffff1673ffffffffffffffffffffffffffffffffffffffff16815260200190815260200160002054905085811015611ae2576040517f08c379a0000000000000000000000000000000000000000000000000000000008152600401611ad9906138ba565b60405180910390fd5b85810360008089815260200190815260200160002060008b73ffffffffffffffffffffffffffffffffffffffff1673ffffffffffffffffffffffffffffffffffffffff168152602001908152602001600020819055508560008089815260200190815260200160002060008a73ffffffffffffffffffffffffffffffffffffffff1673ffffffffffffffffffffffffffffffffffffffff1681526020019081526020016000206000828254611b979190613729565b925050819055508773ffffffffffffffffffffffffffffffffffffffff168973ffffffffffffffffffffffffffffffffffffffff168573ffffffffffffffffffffffffffffffffffffffff167fc3d58168c5ae7397731d063d5bbf3d657854427343f4c083240f7aacaa2d0f628a8a604051611c149291906139fe565b60405180910390a4611c2a848a8a86868a611ea8565b611c38848a8a8a8a8a61214b565b505050505050505050565b600073ffffffffffffffffffffffffffffffffffffffff168373ffffffffffffffffffffffffffffffffffffffff161415611cb3576040517f08c379a0000000000000000000000000000000000000000000000000000000008152600401611caa9061394c565b60405180910390fd5b6000611cbd610f04565b90506000611cca846120d1565b90506000611cd7846120d1565b9050611cf783876000858560405180602001604052806000815250611e8a565b600080600087815260200190815260200160002060008873ffffffffffffffffffffffffffffffffffffffff1673ffffffffffffffffffffffffffffffffffffffff16815260200190815260200160002054905084811015611d8e576040517f08c379a0000000000000000000000000000000000000000000000000000000008152600401611d85906139de565b60405180910390fd5b84810360008088815260200190815260200160002060008973ffffffffffffffffffffffffffffffffffffffff1673ffffffffffffffffffffffffffffffffffffffff16815260200190815260200160002081905550600073ffffffffffffffffffffffffffffffffffffffff168773ffffffffffffffffffffffffffffffffffffffff168573ffffffffffffffffffffffffffffffffffffffff167fc3d58168c5ae7397731d063d5bbf3d657854427343f4c083240f7aacaa2d0f628989604051611e5b9291906139fe565b60405180910390a4611e8184886000868660405180602001604052806000815250611ea8565b50505050505050565b611e92612323565b611ea086868686868661236d565b505050505050565b505050505050565b611ecf8473ffffffffffffffffffffffffffffffffffffffff1661253f565b15612080578373ffffffffffffffffffffffffffffffffffffffff1663bc197c8187878686866040518663ffffffff1660e01b8152600401611f15959493929190613b0e565b6020604051808303816000875af1925050508015611f5157506040513d601f19601f82011682018060405250810190611f4e9190613b8b565b60015b611ff757611f5d613bc5565b806308c379a01415611fba5750611f72613be7565b80611f7d5750611fbc565b806040517f08c379a0000000000000000000000000000000000000000000000000000000008152600401611fb19190612a1e565b60405180910390fd5b505b6040517f08c379a0000000000000000000000000000000000000000000000000000000008152600401611fee90613cef565b60405180910390fd5b63bc197c8160e01b7bffffffffffffffffffffffffffffffffffffffffffffffffffffffff1916817bffffffffffffffffffffffffffffffffffffffffffffffffffffffff19161461207e576040517f08c379a000000000000000000000000000000000000000000000000000000000815260040161207590613d81565b60405180910390fd5b505b505050505050565b61209061082e565b6120cf576040517f08c379a00000000000000000000000000000000000000000000000000000000081526004016120c690613ded565b60405180910390fd5b565b60606000600167ffffffffffffffff8111156120f0576120ef6127f5565b5b60405190808252806020026020018201604052801561211e5781602001602082028036833780820191505090505b509050828160008151811061213657612135613460565b5b60200260200101818152505080915050919050565b61216a8473ffffffffffffffffffffffffffffffffffffffff1661253f565b1561231b578373ffffffffffffffffffffffffffffffffffffffff1663f23a6e6187878686866040518663ffffffff1660e01b81526004016121b0959493929190613e0d565b6020604051808303816000875af19250505080156121ec57506040513d601f19601f820116820180604052508101906121e99190613b8b565b60015b612292576121f8613bc5565b806308c379a01415612255575061220d613be7565b806122185750612257565b806040517f08c379a000000000000000000000000000000000000000000000000000000000815260040161224c9190612a1e565b60405180910390fd5b505b6040517f08c379a000000000000000000000000000000000000000000000000000000000815260040161228990613cef565b60405180910390fd5b63f23a6e6160e01b7bffffffffffffffffffffffffffffffffffffffffffffffffffffffff1916817bffffffffffffffffffffffffffffffffffffffffffffffffffffffff191614612319576040517f08c379a000000000000000000000000000000000000000000000000000000000815260040161231090613d81565b60405180910390fd5b505b505050505050565b61232b61082e565b1561236b576040517f08c379a000000000000000000000000000000000000000000000000000000000815260040161236290613eb3565b60405180910390fd5b565b61237b868686868686612562565b600073ffffffffffffffffffffffffffffffffffffffff168573ffffffffffffffffffffffffffffffffffffffff16141561242d5760005b835181101561242b578281815181106123cf576123ce613460565b5b6020026020010151600460008684815181106123ee576123ed613460565b5b6020026020010151815260200190815260200160002060008282546124139190613729565b9250508190555080612424906134be565b90506123b3565b505b600073ffffffffffffffffffffffffffffffffffffffff168473ffffffffffffffffffffffffffffffffffffffff1614156125375760005b835181101561253557600084828151811061248357612482613460565b5b6020026020010151905060008483815181106124a2576124a1613460565b5b6020026020010151905060006004600084815260200190815260200160002054905081811015612507576040517f08c379a00000000000000000000000000000000000000000000000000000000081526004016124fe90613f45565b60405180910390fd5b81810360046000858152602001908152602001600020819055505050508061252e906134be565b9050612465565b505b505050505050565b6000808273ffffffffffffffffffffffffffffffffffffffff163b119050919050565b505050505050565b8280546125769061330a565b90600052602060002090601f01602090048101928261259857600085556125df565b82601f106125b157805160ff19168380011785556125df565b828001600101855582156125df579182015b828111156125de5782518255916020019190600101906125c3565b5b5090506125ec91906125f0565b5090565b5b808211156126095760008160009055506001016125f1565b5090565b6000604051905090565b600080fd5b600080fd5b600073ffffffffffffffffffffffffffffffffffffffff82169050919050565b600061264c82612621565b9050919050565b61265c81612641565b811461266757600080fd5b50565b60008135905061267981612653565b92915050565b6000819050919050565b6126928161267f565b811461269d57600080fd5b50565b6000813590506126af81612689565b92915050565b600080604083850312156126cc576126cb612617565b5b60006126da8582860161266a565b92505060206126eb858286016126a0565b9150509250929050565b6126fe8161267f565b82525050565b600060208201905061271960008301846126f5565b92915050565b60007fffffffff0000000000000000000000000000000000000000000000000000000082169050919050565b6127548161271f565b811461275f57600080fd5b50565b6000813590506127718161274b565b92915050565b60006020828403121561278d5761278c612617565b5b600061279b84828501612762565b91505092915050565b60008115159050919050565b6127b9816127a4565b82525050565b60006020820190506127d460008301846127b0565b92915050565b600080fd5b600080fd5b6000601f19601f8301169050919050565b7f4e487b7100000000000000000000000000000000000000000000000000000000600052604160045260246000fd5b61282d826127e4565b810181811067ffffffffffffffff8211171561284c5761284b6127f5565b5b80604052505050565b600061285f61260d565b905061286b8282612824565b919050565b600067ffffffffffffffff82111561288b5761288a6127f5565b5b612894826127e4565b9050602081019050919050565b82818337600083830152505050565b60006128c36128be84612870565b612855565b9050828152602081018484840111156128df576128de6127df565b5b6128ea8482856128a1565b509392505050565b600082601f830112612907576129066127da565b5b81356129178482602086016128b0565b91505092915050565b60006020828403121561293657612935612617565b5b600082013567ffffffffffffffff8111156129545761295361261c565b5b612960848285016128f2565b91505092915050565b60006020828403121561297f5761297e612617565b5b600061298d848285016126a0565b91505092915050565b600081519050919050565b600082825260208201905092915050565b60005b838110156129d05780820151818401526020810190506129b5565b838111156129df576000848401525b50505050565b60006129f082612996565b6129fa81856129a1565b9350612a0a8185602086016129b2565b612a13816127e4565b840191505092915050565b60006020820190508181036000830152612a3881846129e5565b905092915050565b600067ffffffffffffffff821115612a5b57612a5a6127f5565b5b602082029050602081019050919050565b600080fd5b6000612a84612a7f84612a40565b612855565b90508083825260208201905060208402830185811115612aa757612aa6612a6c565b5b835b81811015612ad05780612abc88826126a0565b845260208401935050602081019050612aa9565b5050509392505050565b600082601f830112612aef57612aee6127da565b5b8135612aff848260208601612a71565b91505092915050565b600067ffffffffffffffff821115612b2357612b226127f5565b5b612b2c826127e4565b9050602081019050919050565b6000612b4c612b4784612b08565b612855565b905082815260208101848484011115612b6857612b676127df565b5b612b738482856128a1565b509392505050565b600082601f830112612b9057612b8f6127da565b5b8135612ba0848260208601612b39565b91505092915050565b60008060008060808587031215612bc357612bc2612617565b5b6000612bd18782880161266a565b945050602085013567ffffffffffffffff811115612bf257612bf161261c565b5b612bfe87828801612ada565b935050604085013567ffffffffffffffff811115612c1f57612c1e61261c565b5b612c2b87828801612ada565b925050606085013567ffffffffffffffff811115612c4c57612c4b61261c565b5b612c5887828801612b7b565b91505092959194509250565b600080600080600060a08688031215612c8057612c7f612617565b5b6000612c8e8882890161266a565b9550506020612c9f8882890161266a565b945050604086013567ffffffffffffffff811115612cc057612cbf61261c565b5b612ccc88828901612ada565b935050606086013567ffffffffffffffff811115612ced57612cec61261c565b5b612cf988828901612ada565b925050608086013567ffffffffffffffff811115612d1a57612d1961261c565b5b612d2688828901612b7b565b9150509295509295909350565b600067ffffffffffffffff821115612d4e57612d4d6127f5565b5b602082029050602081019050919050565b6000612d72612d6d84612d33565b612855565b90508083825260208201905060208402830185811115612d9557612d94612a6c565b5b835b81811015612dbe5780612daa888261266a565b845260208401935050602081019050612d97565b5050509392505050565b600082601f830112612ddd57612ddc6127da565b5b8135612ded848260208601612d5f565b91505092915050565b60008060408385031215612e0d57612e0c612617565b5b600083013567ffffffffffffffff811115612e2b57612e2a61261c565b5b612e3785828601612dc8565b925050602083013567ffffffffffffffff811115612e5857612e5761261c565b5b612e6485828601612ada565b9150509250929050565b600081519050919050565b600082825260208201905092915050565b6000819050602082019050919050565b612ea38161267f565b82525050565b6000612eb58383612e9a565b60208301905092915050565b6000602082019050919050565b6000612ed982612e6e565b612ee38185612e79565b9350612eee83612e8a565b8060005b83811015612f1f578151612f068882612ea9565b9750612f1183612ec1565b925050600181019050612ef2565b5085935050505092915050565b60006020820190508181036000830152612f468184612ece565b905092915050565b600080600060608486031215612f6757612f66612617565b5b6000612f758682870161266a565b935050602084013567ffffffffffffffff811115612f9657612f9561261c565b5b612fa286828701612ada565b925050604084013567ffffffffffffffff811115612fc357612fc261261c565b5b612fcf86828701612ada565b9150509250925092565b60008060008060808587031215612ff357612ff2612617565b5b60006130018782880161266a565b9450506020613012878288016126a0565b9350506040613023878288016126a0565b925050606085013567ffffffffffffffff8111156130445761304361261c565b5b61305087828801612b7b565b91505092959194509250565b61306581612641565b82525050565b6000602082019050613080600083018461305c565b92915050565b61308f816127a4565b811461309a57600080fd5b50565b6000813590506130ac81613086565b92915050565b600080604083850312156130c9576130c8612617565b5b60006130d78582860161266a565b92505060206130e88582860161309d565b9150509250929050565b6000806040838503121561310957613108612617565b5b60006131178582860161266a565b92505060206131288582860161266a565b9150509250929050565b600080600080600060a0868803121561314e5761314d612617565b5b600061315c8882890161266a565b955050602061316d8882890161266a565b945050604061317e888289016126a0565b935050606061318f888289016126a0565b925050608086013567ffffffffffffffff8111156131b0576131af61261c565b5b6131bc88828901612b7b565b9150509295509295909350565b6000602082840312156131df576131de612617565b5b60006131ed8482850161266a565b91505092915050565b60008060006060848603121561320f5761320e612617565b5b600061321d8682870161266a565b935050602061322e868287016126a0565b925050604061323f868287016126a0565b9150509250925092565b7f455243313135353a2061646472657373207a65726f206973206e6f742061207660008201527f616c6964206f776e657200000000000000000000000000000000000000000000602082015250565b60006132a5602a836129a1565b91506132b082613249565b604082019050919050565b600060208201905081810360008301526132d481613298565b9050919050565b7f4e487b7100000000000000000000000000000000000000000000000000000000600052602260045260246000fd5b6000600282049050600182168061332257607f821691505b60208210811415613336576133356132db565b5b50919050565b7f455243313135353a2063616c6c6572206973206e6f7420746f6b656e206f776e60008201527f6572206f7220617070726f766564000000000000000000000000000000000000602082015250565b6000613398602e836129a1565b91506133a38261333c565b604082019050919050565b600060208201905081810360008301526133c78161338b565b9050919050565b7f455243313135353a206163636f756e747320616e6420696473206c656e67746860008201527f206d69736d617463680000000000000000000000000000000000000000000000602082015250565b600061342a6029836129a1565b9150613435826133ce565b604082019050919050565b600060208201905081810360008301526134598161341d565b9050919050565b7f4e487b7100000000000000000000000000000000000000000000000000000000600052603260045260246000fd5b7f4e487b7100000000000000000000000000000000000000000000000000000000600052601160045260246000fd5b60006134c98261267f565b91507fffffffffffffffffffffffffffffffffffffffffffffffffffffffffffffffff8214156134fc576134fb61348f565b5b600182019050919050565b7f4f776e61626c653a206e6577206f776e657220697320746865207a65726f206160008201527f6464726573730000000000000000000000000000000000000000000000000000602082015250565b60006135636026836129a1565b915061356e82613507565b604082019050919050565b6000602082019050818103600083015261359281613556565b9050919050565b7f4f776e61626c653a2063616c6c6572206973206e6f7420746865206f776e6572600082015250565b60006135cf6020836129a1565b91506135da82613599565b602082019050919050565b600060208201905081810360008301526135fe816135c2565b9050919050565b7f455243313135353a206d696e7420746f20746865207a65726f2061646472657360008201527f7300000000000000000000000000000000000000000000000000000000000000602082015250565b60006136616021836129a1565b915061366c82613605565b604082019050919050565b6000602082019050818103600083015261369081613654565b9050919050565b7f455243313135353a2069647320616e6420616d6f756e7473206c656e6774682060008201527f6d69736d61746368000000000000000000000000000000000000000000000000602082015250565b60006136f36028836129a1565b91506136fe82613697565b604082019050919050565b60006020820190508181036000830152613722816136e6565b9050919050565b60006137348261267f565b915061373f8361267f565b9250827fffffffffffffffffffffffffffffffffffffffffffffffffffffffffffffffff038211156137745761377361348f565b5b828201905092915050565b600060408201905081810360008301526137998185612ece565b905081810360208301526137ad8184612ece565b90509392505050565b7f455243313135353a207472616e7366657220746f20746865207a65726f20616460008201527f6472657373000000000000000000000000000000000000000000000000000000602082015250565b60006138126025836129a1565b915061381d826137b6565b604082019050919050565b6000602082019050818103600083015261384181613805565b9050919050565b7f455243313135353a20696e73756666696369656e742062616c616e636520666f60008201527f72207472616e7366657200000000000000000000000000000000000000000000602082015250565b60006138a4602a836129a1565b91506138af82613848565b604082019050919050565b600060208201905081810360008301526138d381613897565b9050919050565b7f455243313135353a206275726e2066726f6d20746865207a65726f206164647260008201527f6573730000000000000000000000000000000000000000000000000000000000602082015250565b60006139366023836129a1565b9150613941826138da565b604082019050919050565b6000602082019050818103600083015261396581613929565b9050919050565b7f455243313135353a206275726e20616d6f756e7420657863656564732062616c60008201527f616e636500000000000000000000000000000000000000000000000000000000602082015250565b60006139c86024836129a1565b91506139d38261396c565b604082019050919050565b600060208201905081810360008301526139f7816139bb565b9050919050565b6000604082019050613a1360008301856126f5565b613a2060208301846126f5565b9392505050565b7f455243313135353a2073657474696e6720617070726f76616c2073746174757360008201527f20666f722073656c660000000000000000000000000000000000000000000000602082015250565b6000613a836029836129a1565b9150613a8e82613a27565b604082019050919050565b60006020820190508181036000830152613ab281613a76565b9050919050565b600081519050919050565b600082825260208201905092915050565b6000613ae082613ab9565b613aea8185613ac4565b9350613afa8185602086016129b2565b613b03816127e4565b840191505092915050565b600060a082019050613b23600083018861305c565b613b30602083018761305c565b8181036040830152613b428186612ece565b90508181036060830152613b568185612ece565b90508181036080830152613b6a8184613ad5565b90509695505050505050565b600081519050613b858161274b565b92915050565b600060208284031215613ba157613ba0612617565b5b6000613baf84828501613b76565b91505092915050565b60008160e01c9050919050565b600060033d1115613be45760046000803e613be1600051613bb8565b90505b90565b600060443d1015613bf757613c7a565b613bff61260d565b60043d036004823e80513d602482011167ffffffffffffffff82111715613c27575050613c7a565b808201805167ffffffffffffffff811115613c455750505050613c7a565b80602083010160043d038501811115613c62575050505050613c7a565b613c7182602001850186612824565b82955050505050505b90565b7f455243313135353a207472616e7366657220746f206e6f6e2d4552433131353560008201527f526563656976657220696d706c656d656e746572000000000000000000000000602082015250565b6000613cd96034836129a1565b9150613ce482613c7d565b604082019050919050565b60006020820190508181036000830152613d0881613ccc565b9050919050565b7f455243313135353a204552433131353552656365697665722072656a6563746560008201527f6420746f6b656e73000000000000000000000000000000000000000000000000602082015250565b6000613d6b6028836129a1565b9150613d7682613d0f565b604082019050919050565b60006020820190508181036000830152613d9a81613d5e565b9050919050565b7f5061757361626c653a206e6f7420706175736564000000000000000000000000600082015250565b6000613dd76014836129a1565b9150613de282613da1565b602082019050919050565b60006020820190508181036000830152613e0681613dca565b9050919050565b600060a082019050613e22600083018861305c565b613e2f602083018761305c565b613e3c60408301866126f5565b613e4960608301856126f5565b8181036080830152613e5b8184613ad5565b90509695505050505050565b7f5061757361626c653a2070617573656400000000000000000000000000000000600082015250565b6000613e9d6010836129a1565b9150613ea882613e67565b602082019050919050565b60006020820190508181036000830152613ecc81613e90565b9050919050565b7f455243313135353a206275726e20616d6f756e74206578636565647320746f7460008201527f616c537570706c79000000000000000000000000000000000000000000000000602082015250565b6000613f2f6028836129a1565b9150613f3a82613ed3565b604082019050919050565b60006020820190508181036000830152613f5e81613f22565b905091905056fea264697066735822122068d5eca9fe5a3c31e2c7d026c9e0f3602a61fa2e4049e08110bf4c581da62e5864736f6c634300080a0033",
  "linkReferences": {},
  "deployedLinkReferences": {}
}